:100000000C943E000C945B000C945B000C945B0021
:100010000C945B000C945B000C945B000C945B00F4
:100020000C945B000C945B000C945B000C945B00E4
:100030000C945B000C945B000C945B000C945B00D4
:100040000C945B000C945B000C945B000C945B00C4
:100050000C9447040C945B000C945B000C945B00C4
:100060000C945B000C945B000C945B000C945B00A4
:100070000C945B000C945B000C945B0011241FBE7D
:10008000CFEFD8E0DEBFCDBF13E0A0E0B1E0EEEFF0
:10009000FAE102C005900D92AA32B107D9F724E027
:1000A000AAE2B3E001C01D92AA36B207E1F70E94AE
:1000B000E3060C947D0D0C9400002F923F924F921A
:1000C0005F926F927F928F929F92AF92BF92CF92E8
:1000D000DF92EF92FF920F931F93CF93DF93CDB7F1
:1000E000DEB72C970FB6F894DEBF0FBECDBF8C01E4
:1000F0008DB79EB79E838D83F80101900020E9F7AC
:1001000031971F01201A310A3324910121503109FE
:10011000EDB7FEB7E219F3090FB6F894FEBF0FBEB4
:10012000EDBF8DB79EB701969A838983412C512CE0
:100130003201019698878F83E981FA81E20FF31FDC
:10014000FA87E9878091610490916204A091630429
:10015000B0916404805F984DAF4FBF4F4816590669
:100160006A067B0650F010926104109262041092AD
:1001700063041092640482E064C080916904843056
:1001800011F410926904E1ECF3E001900020E9F72A
:100190003197CF01815C93406C01E12CF12CC114AB
:1001A000D104E104F10409F474C08FE99FE00197E0
:1001B000F1F700C000009FEF491A590A690A790A4D
:1001C000E1ECF3E001900020E9F73197CF01815C89
:1001D0009340A0E0B0E0C816D906EA06FB0609F095
:1001E00058C0E1ECF3E0FC83EB83812C912C5401AB
:1001F000A9016F81788589819A812B873C870E942C
:100200004E0AEB81FC818191FC83EB83E985FA85C1
:100210008083A101B80189819A810E946E0AFFEF53
:100220008F1A9F0AAF0ABF0A2B853C85892B59F587
:10023000109261041092620410926304109264049C
:1002400081E080936904ED81FE810FB6F894FEBFD2
:100250000FBEEDBF2C960FB6F894DEBF0FBECDBF1C
:10026000DF91CF911F910F91FF90EF90DF90CF9092
:10027000BF90AF909F908F907F906F905F904F90C6
:100280003F902F9008958C149D04AE04BF0408F491
:10029000AFCF8FE99FE00197F1F700C000009FEF1B
:1002A000491A590A690A790A4DCF80EAE1ECF3E06C
:1002B000DF011D928A95E9F7109268041092670495
:1002C00010926604109265040895CF93DF93EC01B9
:1002D00084E080936904CE010E945D0090916904DE
:1002E0009923C9F3DF91CF910895CF92DF92EF92D6
:1002F000FF920F931F93CF93DF9300D000D01F92F4
:10030000CDB7DEB78C01BC01645F7F4FFB016F018D
:10031000C01AD10A81918D30D1F7A6014C505109F4
:10032000CE0101960E947C0AF80101900020E9F7B5
:100330003197E01BF10BB6016E5F7F4F7F01E61A2C
:10034000F70A600F711FA701C8010E94450A86E0E5
:10035000E81AF1080E0D1F1D46E050E060E071E064
:10036000C8010E946E0A892B41F4A601485F5F4FC5
:1003700060E070E0C8010E94600A0F900F900F903B
:100380000F900F90DF91CF911F910F91FF90EF9001
:10039000DF90CF9008950E94650181E090916904FB
:1003A000923009F480E008950F931F93CF93DF9369
:1003B00000D0CDB7DEB78B0189839A830E945501A7
:1003C00089819A810E943D0588E691E00E943D0561
:1003D000C8010F900F90DF91CF911F910F910C9456
:1003E000CB010F931F93CF93DF93CDB7DEB7649705
:1003F0000FB6F894DEBF0FBECDBF8E010F5F1F4F4B
:1004000094E1F80111929A95E9F71F928F9387E092
:1004100091E09F938F931F930F930E94A50A1C8ACC
:1004200060E071E0C8010E94D4010F900F900F901E
:100430000F900F900F9064960FB6F894DEBF0FBE2A
:10044000CDBFDF91CF911F910F9108950F931F930F
:10045000CF93DF93CDB7DEB764970FB6F894DEBFC6
:100460000FBECDBF8E010F5F1F4F94E1F8011192B7
:100470009A95E9F71F928F9385E191E09F938F936F
:100480001F930F930E94A50A1C8A60E071E0C801C7
:100490000E94D4010F900F900F900F900F900F902B
:1004A00064960FB6F894DEBF0FBECDBFDF91CF913B
:1004B0001F910F910895CF93C5E060E071E082E253
:1004C00091E00E94D40181110BC060E071E087E2ED
:1004D00091E00E94D401811103C0C15071F701C0A5
:1004E00081E0CF91089560E071E08AE291E00C94A0
:1004F000D4010F931F93CF93DF93CDB7DEB76497EB
:100500000FB6F894DEBF0FBECDBF8E010F5F1F4F39
:1005100094E1F80111929A95E9F71F928F9388E37D
:1005200091E09F938F931F930F930E94A50A1C8ABB
:1005300060E071E0C8010E94D4010F900F900F900D
:100540000F900F900F9064960FB6F894DEBF0FBE19
:10055000CDBFDF91CF911F910F9108950F931F93FE
:10056000CF93DF93CDB7DEB7EC970FB6F894DEBF2D
:100570000FBECDBF8E010F5F1F4F2CE3F80111920C
:100580002A95E9F77F936F939F938F9385E491E08A
:100590009F938F931F930F930E94A50A1CAE68E54B
:1005A00071E0C8010E94D4010FB6F894DEBF0FBEFF
:1005B000CDBF811122C06BE671E081EC93E00E9417
:1005C0008B0A892BE1F464E771E081EC93E00E94EF
:1005D0008B0A892BB1F46DE771E081EC93E00E9406
:1005E0008B0A892B81F466E871E081EC93E00E942C
:1005F0008B0A892B51F485E009C080E007C081E0B7
:1006000005C082E003C083E001C084E0EC960FB631
:10061000F894DEBF0FBECDBFDF91CF911F910F9138
:10062000089560E071E08FE891E00E94D4016CE9E8
:1006300071E081EC93E00E948B0A892BD1F465EA8A
:1006400071E081EC93E00E948B0A892BA1F46EEAA1
:1006500071E081EC93E00E948B0A892B71F467EBC7
:1006600071E081EC93E00E948B0A892B41F484E0D5
:10067000089580E0089581E0089582E0089583E080
:100680000895DF92EF92FF920F931F93CF93DF9322
:10069000CDB7DEB7EE970FB6F894DEBF0FBECDBF75
:1006A000D82EF62EE72E8E010F5F1F4F8CE3F80138
:1006B00011928A95E9F760EC71E089EC91E04DAF19
:1006C0005EAF0E94D4014DAD5EAD882369F05F93AB
:1006D0004F93EF92FF9284ED91E09F938F931F933E
:1006E0000F930E94A50A0EC05F934F93EF92FF9263
:1006F0001F92DF928EEE91E09F938F931F930F9343
:100700000E94A50A0FB6F894DEBF0FBECDBF6DE004
:1007100072E0C8010E94D401811106C08091690471
:10072000823021F085E003C081E001C082E0EE96D6
:100730000FB6F894DEBF0FBECDBFDF91CF911F91F2
:100740000F91FF90EF90DF900895EF92FF920F933B
:100750001F93CF93DF93CDB7DEB764970FB6F894AE
:10076000DEBF0FBECDBF8C01CE0101967C0184E1BE
:10077000F70111928A95E9F7F80101900020E9F755
:100780009F01201B310B2F5F3F4F3F932F9387E13A
:1007900092E09F938F93FF92EF920E94A50A1C8A8A
:1007A00065E272E0C7010E94D4016DE272E0C80107
:1007B0000E94D4010F900F900F900F900F900F9008
:1007C000811106C080916904823021F085E003C068
:1007D00081E001C082E064960FB6F894DEBF0FBEE0
:1007E000CDBFDF91CF911F910F91FF90EF900895B2
:1007F00080916704909168042091650430916604AB
:10080000821B930B089520916504309166048091BA
:100810006704909168042817390784F4809165046F
:10082000909166049C012F5F3F4F309366042093A4
:100830006504FC01EF53FC4F808108950E9455012F
:1008400080E00895EF92FF920F931F93CF93DF9371
:100850008C012FEF81EE94E0215080409040E1F731
:1008600000C00000E8017E01E01AF10A0E94F803CE
:100870001816190624F40E9403048993F4CFC701C3
:10088000DF91CF911F910F91FF90EF9008951F92EC
:100890000F920FB60F9211242F938F939F93EF9384
:1008A000FF932FB7F894E0916704F091680480916A
:1008B000C600EF53FC4F80838091670490916804D9
:1008C00001969093680480936704809167049091E7
:1008D0006804803A910541F410926804109267040C
:1008E00010926604109265042FBFFF91EF919F91C3
:1008F0008F912F910F900FBE0F901F90189560E071
:1009000072EC81E090E00E94010569E372E080E012
:100910000E9485060E945B028823E1F364E472E092
:1009200080E00E94850683E00E94790260E572E023
:1009300080E00E94850680E00E9426026DE572E05C
:1009400080E00E94850680E00E94F1016AE672E084
:1009500080E00E9485060E941103833029F466E737
:1009600072E0CB010E94AE0264E872E080E00E9477
:10097000850643E952E066E972E080E00E944103A7
:1009800069EA72E080E00C948506CF93DF93EC0176
:100990000E94110380932A03833029F466E772E0F2
:1009A000CB010E94AE0280912A03823039F443E9E0
:1009B00052E066E972E080E00E944103EBE2F3E07E
:1009C00086E9DF011D928A95E9F7DF93CF9386EBE5
:1009D00092E09F938F9387EC92E09F938F93FF9386
:1009E000EF930E94A50A8DB79EB708960FB6F894AC
:1009F0009EBF0FBE8DBF8BE293E0DF91CF910C9431
:100A0000A503E0ECF0E0208122602083E1ECF0E03F
:100A1000208128692083E2ECF0E020812660208399
:100A20000E94FD0820E030E040E051E40E948B0984
:100A30009B01AC0160E074E284E79BE40E945508EE
:100A400020E030E040E85FE30E94E8070E94F809F8
:100A50000E94C7086093C4007093C50008958091F8
:100A6000C00087FFFCCF8091C60008958093C60028
:100A70008091C00085FFFCCF0895CF93DF93EC01F8
:100A80008991882319F00E943605FACFDF91CF9122
:100A90000895DF92EF92FF920F931F93CF93DF930E
:100AA00087B1877887B988B1877888B9179A00C0E5
:100AB00000C046B1D6B096B1392F307286B11798C2
:100AC00000C000C0179A00C000C096B1987006B16F
:100AD00016B156B1179800C000C027B1286727B9D2
:100AE000932B56FBEE24E0F8F12C9701292B90E193
:100AF000499FA001112440785527242B352BD4FA87
:100B0000DD24D0F8CD2D90E0D92F96E0CC0FDD1F5D
:100B10009A95E1F72C2B3D2B86FBEE27E0F9F0E0D0
:100B200044E0EE0FFF1F4A95E1F72E2B3F2B04FB0D
:100B3000662760F970E0660F771F660F771F622BDC
:100B4000732B15FBAA27A0F9B0E0CD01880F991FE0
:100B5000862BDF91CF911F910F91FF90EF90DF9047
:100B600008951598169A00C000C00C944905159A6E
:100B7000169A00C000C00C9449050E94B105881F58
:100B80008827881F08950E94BD058111FCCF089514
:100B90000F931F93CF93DF93179A28B1C82F982FE5
:100BA00090722778292B982F991F9927991F990FB1
:100BB000990F990F922B86FB002700F910E024E093
:100BC000000F111F2A95E1F7092BA82FA295A170FC
:100BD000B0E036E0AA0FBB1F3A95E1F7A02BA8B909
:100BE00000C000C0179800C000C0179A98B1282F05
:100BF00028709778922BE82FE170F0E046E0EE0F36
:100C0000FF1F4A95E1F7E92B82FB662760F970E048
:100C100054E0660F771F5A95E1F76E2B4C2F4695DF
:100C2000417050E075E0440F551F7A95E1F7462B6F
:100C300048B900C000C0179800C000C0DF91CF9134
:100C40001F910F910895CF93DF931F92CDB7DEB719
:100C500089830E94C3051598169800C000C0898139
:100C60000F90DF91CF910C94C80587B1886787B941
:100C700081B1806E81B91598169800C000C0179A8E
:100C800088B18778806288B900C000C0179800C01A
:100C900000C088E20E9423068CE00E94230686E0C2
:100CA0000E94230681E00C942306CF93DF931F92CA
:100CB000CDB7DEB789830E94C305159A169800C088
:100CC00000C089810F90DF91CF910C94C8050C94DE
:100CD0005506CF93DF931F92CDB7DEB78058698357
:100CE0000E9423066981862F0F90DF91CF910C948B
:100CF0005506CF93DF93EC018991882319F00E9468
:100D00005506FACFDF91CF910895CF93DF93EB0192
:100D100080680E942306CE01DF91CF910C94790662
:100D20000F931F93CF93DF938C01EB0181E00E941F
:100D30002306C8010E94790680EC0E942306CE019A
:100D4000DF91CF911F910F910C9479060F931F9310
:100D5000CF93DF93CDB7DEB7A0970FB6F894DEBF81
:100D60000FBECDBF8C0181E00E942306F8010190E7
:100D70000020E9F73197E01BF10B7197B0F040E1EB
:100D800050E0B801CE0141960E947C0AB801605F34
:100D90007F4FCE0101960E94670ABE016F5F7F4FB1
:100DA000CE0141960E94900603C0C8010E947906B8
:100DB000A0960FB6F894DEBF0FBECDBFDF91CF91E6
:100DC0001F910F910895CF93DF93CDB7DEB7C6592A
:100DD000D1090FB6F894DEBF0FBECDBF60E072EC54
:100DE00081E090E00E94010578940E945B028823D4
:100DF000E1F383E00E94790280E00E94260280E015
:100E00000E94F1010E941103833029F466E772E029
:100E1000CB010E94AE0243E952E066E972E080E055
:100E20000E9441030E941103833031F466E772E0AF
:100E3000CB010E94AE0209C0823039F443E952E08E
:100E400066E972E080E00E9441038E010F5F1F4F50
:100E500086E9F80111928A95E9F71F921F9286EBB5
:100E600092E09F938F9388EE92E09F938F931F93CE
:100E70000F930E94A50AC8010E94A5030E941103B6
:100E80000FB6F894DEBF0FBECDBF833031F466E7F6
:100E900072E0CB010E94AE0209C0823039F443E90E
:100EA00052E066E972E080E00E94410386E9F801C1
:100EB00011928A95E9F71F9281E08F9386EB92E079
:100EC0009F938F9388EE92E09F938F931F930F933E
:100ED0000E94A50AC8010E94A5030E9411030FB633
:100EE000F894DEBF0FBECDBF833031F466E772E009
:100EF000CB010E94AE0209C0823039F443E952E0CE
:100F000066E972E080E00E94410386E9F8011192EF
:100F10008A95E9F71F9282E08F9386EB92E09F9388
:100F20008F9388EE92E09F938F931F930F930E946D
:100F3000A50AC8010E94A5030FB6F894DEBF0FBE34
:100F4000CDBF86E9F82EEE24E39496EBA92E92E02D
:100F5000B92E29E0C22E23E0D22E0E941103833045
:100F600031F466E772E0CB010E94AE0209C0823024
:100F700039F443E952E066E972E080E00E944103FF
:100F8000F8012F2D11922A95E9F71F92EF92BF9247
:100F9000AF92DF92CF921F930F930E94A50AC801D0
:100FA0000E94A5033FEF89E592E6E2E031508040E0
:100FB0009040E040D9F700C000000FB6F894DEBFC3
:100FC0000FBECDBFF8012F2D11922A95E9F7C5CF9D
:100FD0005058BB27AA270E9400080C9451090E9470
:100FE000430938F00E944A0920F039F49F3F19F470
:100FF00026F40C9440090EF4E095E7FB0C943A09B2
:10100000E92F0E94620958F3BA1762077307840731
:10101000950720F079F4A6F50C9484090EF4E09578
:101020000B2EBA2FA02D0B01B90190010C01CA01A2
:10103000A0011124FF27591B99F0593F50F4503E4D
:1010400068F11A16F040A22F232F342F4427585F3F
:10105000F3CF469537952795A795F0405395C9F757
:101060007EF41F16BA0B620B730B840BBAF091500F
:10107000A1F0FF0FBB1F661F771F881FC2F70EC0AE
:10108000BA0F621F731F841F48F487957795679581
:10109000B795F7959E3F08F0B0CF9395880F08F06D
:1010A0009927EE0F9795879508950E9469080C94EB
:1010B00051090E944A0958F00E94430940F029F45E
:1010C0005F3F29F00C943A0951110C9485090C9456
:1010D00040090E94620968F39923B1F3552391F303
:1010E000951B550BBB27AA2762177307840738F097
:1010F0009F5F5F4F220F331F441FAA1FA9F335D0F4
:101100000E2E3AF0E0E832D091505040E695001CA7
:10111000CAF72BD0FE2F29D0660F771F881FBB1F61
:10112000261737074807AB07B0E809F0BB0B802D3F
:10113000BF01FF2793585F4F3AF09E3F510578F06B
:101140000C943A090C9485095F3FE4F3983ED4F37C
:10115000869577956795B795F7959F5FC9F7880F3F
:10116000911D9695879597F90895E1E0660F771F91
:10117000881FBB1F621773078407BA0720F0621B22
:10118000730B840BBA0BEE1F88F7E09508950E944D
:10119000CE086894B1110C94850908950E946A09DB
:1011A00088F09F5798F0B92F9927B751B0F0E1F028
:1011B000660F771F881F991F1AF0BA95C9F714C0D8
:1011C000B13091F00E948409B1E008950C94840933
:1011D000672F782F8827B85F39F0B93FCCF3869511
:1011E00077956795B395D9F73EF49095809570956E
:1011F00061957F4F8F4F9F4F0895E89409C097FBEB
:101200003EF490958095709561957F4F8F4F9F4FDD
:101210009923A9F0F92F96E9BB279395F695879521
:1012200077956795B795F111F8CFFAF4BB0F11F4E4
:1012300060FF1BC06F5F7F4F8F4F9F4F16C088238B
:1012400011F096E911C0772321F09EE8872F762FC1
:1012500005C0662371F096E8862F70E060E02AF002
:101260009A95660F771F881FDAF7880F96958795EE
:1012700097F9089597F99F6780E870E060E0089516
:101280009FEF80EC089500240A941616170618069E
:101290000906089500240A9412161306140605067A
:1012A0000895092E0394000C11F4882352F0BB0F0B
:1012B00040F4BF2B11F460FF04C06F5F7F4F8F4F6E
:1012C0009F4F089557FD9058440F551F59F05F3FA9
:1012D00071F04795880F97FB991F61F09F3F79F058
:1012E00087950895121613061406551FF2CF4695DA
:1012F000F1DF08C0161617061806991FF1CF86955C
:101300007105610508940895E894BB27662777273F
:10131000CB0197F908950E949E090C9451090E94EF
:10132000430938F00E944A0920F0952311F00C94EB
:101330003A090C94400911240C9485090E94620911
:1013400070F3959FC1F3950F50E0551F629FF00118
:10135000729FBB27F00DB11D639FAA27F00DB11D31
:10136000AA1F649F6627B00DA11D661F829F2227BA
:10137000B00DA11D621F739FB00DA11D621F839F41
:10138000A00D611D221F749F3327A00D611D231F17
:10139000849F600D211D822F762F6A2F11249F5765
:1013A00050409AF0F1F088234AF0EE0FFF1FBB1F68
:1013B000661F771F881F91505040A9F79E3F510527
:1013C00080F00C943A090C9485095F3FE4F3983E51
:1013D000D4F3869577956795B795F795E7959F5FD1
:1013E000C1F7FE2B880F911D9695879597F9089563
:1013F0000E946A09E8F09E37E8F09639B8F49E3802
:1014000048F4672F782F8827985FF9CF86957795CE
:10141000679593959539D0F3B62FB1706B0F711D09
:10142000811D20F487957795679593950C941C0AF8
:101430000C94370A0C948509882371F4772321F0E2
:101440009850872B762F07C0662311F499270DC07B
:101450009051862B70E060E02AF09A95660F771F16
:10146000881FDAF7880F9695879597F908959F3F1B
:1014700031F0915020F4879577956795B795880F4F
:10148000911D9695879597F90895FB01DC0102C09F
:1014900001900D9241505040D8F708956817790790
:1014A00068F4FB01DC01E40FF51FA40FB51F02C0B7
:1014B00002900E9241505040D8F708950C94450A7E
:1014C000DC0101C06D9341505040E0F70895FB01ED
:1014D000DC0101900D920020E1F70895FB01DC0191
:1014E0004150504030F08D910190801919F4002046
:1014F000B9F7881B990B0895FB01DC01415050405E
:1015000048F001900D920020C9F701C01D92415092
:101510005040E0F70895FB0151915523A9F0BF0118
:10152000DC014D9145174111E1F759F4CD010190CE
:10153000002049F04D9140154111C9F3FB014111C3
:10154000EFCF81E090E001970895AEE0B0E0EBEAE4
:10155000FAE00C94540D0D891E8986E08C831A8361
:1015600009838FEF9FE79E838D83AE01475E5F4FB8
:101570006F89788DCE0101960E94C80A2F81388527
:10158000F801E20FF31F10822E96E4E00C94700D28
:10159000ACE0B0E0EEECFAE00C94460D7C016B019F
:1015A0008A01FC0117821682838181FFBDC1CE01B1
:1015B00001964C01F7019381F60193FD859193FF0C
:1015C00081916F01882309F4ABC1853239F493FD11
:1015D000859193FF81916F01853229F4B70190E0E5
:1015E0000E94B00CE7CF512C312C20E02032A0F427
:1015F0008B3269F030F4803259F0833269F4206123
:101600002CC08D3239F0803339F4216026C022603D
:10161000246023C0286021C027FD27C030ED380F8B
:101620003A3078F426FF06C0FAE05F9E300D1124B0
:10163000532E13C08AE0389E300D1124332E2062C1
:101640000CC08E3221F426FD6BC1206406C08C369E
:1016500011F4206802C0883641F4F60193FD8591AB
:1016600093FF81916F018111C1CF982F9F7D955478
:10167000933028F40C5F1F4FFFE3F9830DC08336CE
:1016800031F0833771F0833509F05BC022C0F80177
:10169000808189830E5F1F4F44244394512C540151
:1016A00015C03801F2E06F0E711CF801A080B18006
:1016B00026FF03C0652D70E002C06FEF7FEFC5010C
:1016C0002C870E94A50C2C0183012C852F77222EBC
:1016D00017C03801F2E06F0E711CF801A080B180D4
:1016E00026FF03C0652D70E002C06FEF7FEFC501DC
:1016F0002C870E949A0C2C012C852068222E8301B5
:1017000023FC1BC0832D90E048165906B0F4B701A6
:1017100080E290E00E94B00C3A94F4CFF50127FCEF
:10172000859127FE81915F01B70190E00E94B00C86
:1017300031103A94F1E04F1A51084114510471F7F5
:10174000E5C0843611F0893639F5F80127FF07C066
:1017500060817181828193810C5F1F4F08C060811D
:101760007181072E000C880B990B0E5F1F4F2F768F
:10177000722E97FF09C090958095709561957F4F67
:101780008F4F9F4F2068722E2AE030E0A4010E9404
:10179000E80CA82EA81844C0853729F42F7EB22E55
:1017A0002AE030E025C0F22FF97FBF2E8F36C1F03E
:1017B00018F4883579F0B4C0803719F0883721F0F3
:1017C000AFC02F2F2061B22EB4FE0DC08B2D8460D0
:1017D000B82E09C024FF0AC09F2F9660B92E06C0FC
:1017E00028E030E005C020E130E002C020E132E036
:1017F000F801B7FE07C060817181828193810C5F1F
:101800001F4F06C06081718180E090E00E5F1F4F26
:10181000A4010E94E80CA82EA818FB2DFF777F2EAC
:1018200076FE0BC0372D3E7FA51450F474FE0AC01F
:1018300072FC08C0372D3E7E05C0BA2C372D03C080
:10184000BA2C01C0B52C34FF0DC0FE01EA0DF11D0C
:101850008081803311F4397E09C032FF06C0B39411
:10186000B39404C0832F867809F0B39433FD13C07A
:1018700030FF06C05A2CB31418F4530C5B18B32C69
:10188000B31468F4B70180E290E03C870E94B00C8A
:10189000B3943C85F5CFB31410F43B1801C0312C40
:1018A00034FF12C0B70180E390E03C870E94B00C87
:1018B0003C8532FF17C031FD03C088E790E002C0CD
:1018C00088E590E0B7010CC0832F867859F031FF8E
:1018D00002C08BE201C080E237FD8DE2B70190E0EB
:1018E0000E94B00CA51438F4B70180E390E00E9488
:1018F000B00C5A94F7CFAA94F401EA0DF11D80813F
:10190000B70190E00E94B00CA110F5CF332009F48C
:1019100051CEB70180E290E00E94B00C3A94F6CF2D
:10192000F7018681978102C08FEF9FEF2C96E2E14D
:101930000C94620DFC010590615070400110D8F7C5
:10194000809590958E0F9F1F0895FC016150704007
:1019500001900110D8F7809590958E0F9F1F0895E4
:101960000F931F93CF93DF93FB01238121FD03C0CE
:101970008FEF9FEF28C022FF16C046815781248138
:1019800035814217530744F4A081B1819D012F5F37
:101990003F4F318320838C93268137812F5F3F4FC8
:1019A0003783268310C0EB01092F182F0084F1859F
:1019B000E02D0995892BE1F68E819F8101969F8309
:1019C0008E83812F902FDF91CF911F910F910895DA
:1019D000FA01AA27283051F1203181F1E8946F9360
:1019E0006E7F6E5F7F4F8F4F9F4FAF4FB1E03ED006
:1019F000B4E03CD0670F781F891F9A1FA11D680FA4
:101A0000791F8A1F911DA11D6A0F711D811D911DD6
:101A1000A11D20D009F468943F912AE0269F11244B
:101A20003019305D3193DEF6CF010895462F4770AF
:101A3000405D4193B3E00FD0C9F7F6CF462F4F700A
:101A4000405D4A3318F0495D31FD4052419302D068
:101A5000A9F7EACFB4E0A69597958795779567950E
:101A6000BA95C9F700976105710508959B01AC010E
:101A70000A2E06945795479537952795BA95C9F735
:101A8000620F731F841F951FA01D08952F923F9210
:101A90004F925F926F927F928F929F92AF92BF927E
:101AA000CF92DF92EF92FF920F931F93CF93DF932A
:101AB000CDB7DEB7CA1BDB0B0FB6F894DEBF0FBE87
:101AC000CDBF09942A88398848885F846E847D84D4
:101AD0008C849B84AA84B984C884DF80EE80FD80D6
:101AE0000C811B81AA81B981CE0FD11D0FB6F8944C
:0E1AF000DEBF0FBECDBFED010895F894FFCF0D
:101AFE000D0A4F4B0D0A0041542B4349504D4F4494
:101B0E00453D25640041542B4349504D55583D25C4
:101B1E006400415445300041540041542B43495018
:101B2E00434C4F53453D310041542B43574D4F4489
:101B3E00453D25640041542B43574A41503D2225D3
:101B4E0073222C22257322000D0A57494649204341
:101B5E004F4E4E45435445440D0A002B43574A41C0
:101B6E00503A31002B43574A41503A32002B4357DB
:101B7E004A41503A33002B43574A41503A340041C0
:101B8E00542B4349505354415455530053544154CC
:101B9E0055533A32005354415455533A330053542B
:101BAE00415455533A34005354415455533A350029
:101BBE004349504D55583A300041542B4349504DEE
:101BCE0055583F0041542B43495053544152543DB4
:101BDE0022544350222C222573222C25730041546B
:101BEE002B43495053544152543D222564222C22FA
:101BFE00544350222C222573222C257300434F4E22
:101C0E004E4543540D0A0041542B43495053454E03
:101C1E00443D2564000D0A4F4B0D0A3E000D0A533C
:101C2E00454E44204F4B0D0A0055534152545F44CC
:101C3E004F4E450057696669206973206F6B21000E
:101C4E0057696669204D6F6465204F4B0057696672
:101C5E006920434F4E4E204F4B0057696669204115
:101C6E005050204F4B0061746F7470757465724ED6
:101C7E00494341005769666920436F6E6E65637410
:101C8E006564003830006170692E7468696E677320
:101C9E007065616B2E636F6D005769666920496EC2
:101CAE006974204F4B005334554C325542363238FE
:101CBE005657454B4A5300474554202F7570646163
:101CCE0074653F6170695F6B65793D257326666942
:101CDE00656C64313D257300474554202F75706443
:101CEE006174653F6170695F6B65793D257326662A
:101CFE0069656C64313D256400474554202F75702D
:101D0E00646174653F6170695F6B65793D2573260B
:0A1D1E006669656C64323D256400BF
:00000001FF
