:100000000C943E000C945B000C945B000C945B0021
:100010000C945B000C945B000C945B000C945B00F4
:100020000C945B000C945B000C945B000C945B00E4
:100030000C945B000C9443010C945B000C945B00EB
:100040000C9412010C945B000C945B000C945B000C
:100050000C945B000C945B000C945B000C945B00B4
:100060000C945B000C945B000C945B000C945B00A4
:100070000C945B000C945B000C945B0011241FBE7D
:10008000CFEFD8E0DEBFCDBF12E0A0E0B1E0E2E804
:10009000FCE002C005900D92AC35B107D9F722E023
:1000A000ACE5B2E001C01D92A037B207E1F70E94B3
:1000B000C9040C943F060C9400000F931F93CF9338
:1000C000DF9300D000D0CDB7DEB78C018FEF9FEF6C
:1000D0009C838B839A838983BE016F5F7F4FCE01A0
:1000E00003960E948103019709F093C0EB81FC8184
:1000F000EE0FFF1FEE0FFF1F29813A81E20FF31F62
:10010000EE0FFF1FE050FF4F8081918184349105F5
:10011000D9F40E947E0480916402909165026AE0A5
:1001200070E00E94150670936502609364028091EE
:100130006A0290916B02019790936B0280936A021E
:1001400060E20E94070359C0209164023091650269
:100150008332910521F580916602909167022817FC
:100160003907C1F48091680290916902039711F4F4
:100170000E94BB0410926902109268025C9A5F9818
:1001800089E292E00E9444030E948A04109267026E
:100190001092660210926502109264022EC06AE00C
:1001A000629FA001639F500D1124840F951F9093AF
:1001B0006502809364020E947E0480916A0290919D
:1001C0006B02892B19F481E00E94C10263E372E0A3
:1001D00080916A020E94230380916A0290916B02CF
:1001E000019690936B0280936A0207C08091680227
:1001F000909169020817190751F4BE016F5F7F4F94
:10020000CE0103960E948103019781F302C0892BDE
:10021000A1F30F900F900F900F90DF91CF911F914E
:100220000F9108951F920F920FB60F9211248F9382
:100230009F93F894809160029091610281309105C2
:10024000D1F44D9B0EC090935F0280935E0280912B
:10025000620290916302019690936302809362021E
:100260000AC080915E0290915F02019721F4109282
:1002700061021092600278949F918F910F900FBE4F
:100280000F901F9018951F920F920FB60F92112486
:100290002F933F934F935F936F937F938F939F938E
:1002A000AF93BF93EF93FF93F8948091680290917E
:1002B00069028130910541F580915C0290915D0267
:1002C000019690935D0280935C020E945404809199
:1002D0005C0290915D020F9759F50E94BB048091DA
:1002E000680290916902019719F583E090E090937C
:1002F000690280936802109265021092640285E39D
:1003000092E00E94440312C0039791F485E392E0C7
:100310000E9444032FEF83EC99E0215080409040ED
:10032000E1F700C0000081E00E94C1020E94540475
:100330007894FF91EF91BF91AF919F918F917F91B1
:100340006F915F914F913F912F910F900FBE0F9042
:100350001F9018958091600290916102892BA1F401
:1003600010926302109262025B9A8AE68A95F1F714
:1003700000C05B9810925F0210925E0281E090E0F4
:10038000909361028093600280916002909161027B
:100390000197D1F381E090E02091620230916302F5
:1003A0002F31310514F080E090E0089581E090E075
:1003B00090936902809368028DE392E00E94440367
:1003C0005F980E94960484E294EF0C94A204DF925A
:1003D000EF92FF920F931F93CF93DF9387B18778AC
:1003E00087B988B1877888B9179A00C000C046B12C
:1003F000D6B096B1392F307286B1179800C000C0C0
:10040000179A00C000C096B1987006B116B156B1E7
:10041000179800C000C027B1286727B9932B56FB57
:10042000EE24E0F8F12C9701292B90E1499FA001DF
:10043000112440785527242B352BD4FADD24D0F80D
:10044000CD2D90E0D92F96E0CC0FDD1F9A95E1F7E6
:100450002C2B3D2B86FBEE27E0F9F0E044E0EE0F7D
:10046000FF1F4A95E1F72E2B3F2B04FB662760F90F
:1004700070E0660F771F660F771F622B732B15FBDB
:10048000AA27A0F9B0E0CD01880F991F862BDF9134
:10049000CF911F910F91FF90EF90DF9008951598E5
:1004A000169A00C000C00C94E701159A169A00C075
:1004B00000C00C94E7010E944F02881F8827881F04
:1004C00008950E945B028111FCCF08950F931F9342
:1004D000CF93DF93179A28B1C82F982F907227785F
:1004E000292B982F991F9927991F990F990F990FC9
:1004F000922B86FB002700F910E024E0000F111F6B
:100500002A95E1F7092BA82FA295A170B0E036E05B
:10051000AA0FBB1F3A95E1F7A02BA8B900C000C0F5
:10052000179800C000C0179A98B1282F28709778A4
:10053000922BE82FE170F0E046E0EE0FFF1F4A95A6
:10054000E1F7E92B82FB662760F970E054E0660F63
:10055000771F5A95E1F76E2B4C2F4695417050E06E
:1005600075E0440F551F7A95E1F7462B48B900C056
:1005700000C0179800C000C0DF91CF911F910F916C
:100580000895CF93DF931F92CDB7DEB789830E9482
:1005900061021598169800C000C089810F90DF9104
:1005A000CF910C94660287B1886787B981B1806E5C
:1005B00081B91598169800C000C0179A88B187783D
:1005C000806288B900C000C0179800C000C088E2EF
:1005D0000E94C1028CE00E94C10286E00E94C1021A
:1005E00081E00C94C102CF93DF931F92CDB7DEB7A9
:1005F00089830E946102159A169800C000C0898103
:100600000F90DF91CF910C9466020C94F302CF937C
:10061000DF931F92CDB7DEB7805869830E94C10275
:100620006981862F0F90DF91CF910C94F302CF93C5
:10063000DF93EC018991882319F00E94F302FACF2D
:10064000DF91CF910895CF93DF93EB0180680E94F3
:10065000C102CE01DF91CF910C9417030F931F932A
:10066000CF93DF938C01EB0181E00E94C102C801AE
:100670000E94170380EC0E94C102CE01DF91CF914E
:100680001F910F910C9417030F931F93CF93DF9338
:10069000CDB7DEB7A0970FB6F894DEBF0FBECDBFC3
:1006A0008C0181E00E94C102F80101900020E9F76D
:1006B0003197E01BF10B7197B0F040E150E0B801C9
:1006C000CE0141960E943006B801605F7F4FCE0197
:1006D00001960E942906BE016F5F7F4FCE014196B1
:1006E0000E942E0303C0C8010E941703A0960FB6F4
:1006F000F894DEBF0FBECDBFDF91CF911F910F9158
:100700000895EF92FF920F931F93CF93DF9313B847
:1007100015B814B825B12F6025B920E030E0C0E845
:10072000D0E008E010E044B1407F44B9E4B1F22EDB
:10073000E32EAE01022E02C0559547950A94E2F7CA
:100740004E2B44B940E050E0E3B1F0E0D801042E74
:1007500002C0B595A7950A94E2F7EA23FB23EF2B95
:1007600049F4FC0140835183FB01F082E18281E086
:1007700090E00CC04F5F5F4F4430510529F72F5F69
:100780003F4F2430310579F680E090E0DF91CF9142
:100790001F910F91FF90EF900895549A089584B59A
:1007A000836C84BD80EC87BD85B5816085BD08956F
:1007B000CF93DF93E1E8F0E0808181608083A0E85F
:1007C000B0E08C91806C8C93C6E8D0E08FEF9FEF07
:1007D000998388838C9183628C9380818C618083E0
:1007E00088819981969587959695879590938900AC
:1007F00080938800888199819695879590938B0046
:1008000080938A00DF91CF910895E0EBF0E0808142
:10081000836C8083E1EBF0E08081816080830895C8
:1008200080916C0290916D02499790936D02809334
:100830006C024997C4F5E0916E02F0916F02EE0FE1
:10084000FF1FEB55FE4F6081718189E09DE30E949F
:1008500001067093890060938800809188009091D0
:1008600089009695879590938B0080938A001092CB
:1008700085001092840080916E0290916F02FC01BD
:10088000EE0FFF1FEF5DFE4F2081318130936D022F
:1008900020936C02019660E470E00E94150690932C
:1008A0006F0280936E0208955C982FEF81EE94E0C2
:1008B000215080409040E1F700C000005C9A2FEF8B
:1008C00081EE94E0215080409040E1F700C00000AC
:1008D00008955C982FEF83EC99E021508040904080
:1008E000E1F700C000005C9A2FEF83EC99E0215003
:1008F00080409040E1F700C0000008955F9A2FEF1C
:1009000081EE94E0215080409040E1F700C000006B
:100910005F980895129A2FEF81EE94E02150804065
:100920009040E1F700C0000012980895119A2FEF4F
:1009300081EE94E0215080409040E1F700C000003B
:100940001198089590938900809388000895EFE6A8
:10095000F0E0808182608083E1E8F0E0808188605F
:10096000808380818460808384ED90E3909389000C
:10097000809388000895EFE6F0E080818D7F80838A
:10098000E1E8F0E08081877F808380818B7F8083B6
:100990000895CF93DF9300D000D0CDB7DEB780E9C4
:1009A0008AB981B1866081B93A9A429A5C9A0E946A
:1009B000D30266E472E080E00E94230381E00E949B
:1009C000C1020FEF1FEF6DE472E080E00E9423038D
:1009D0001C830B831A830983BE016F5F7F4FCE0197
:1009E00003960E948103019771F7EB81FC81EE0F62
:1009F000FF1FEE0FFF1F89819A81E80FF91FEE0F8D
:100A0000FF1FE050FF4F808191818134910581F576
:100A10000E947E0481E00E94C1020E94D302789469
:100A200080916E00826080936E0085B5826085BD86
:100A300085B5826085BD80EA87BD81E00E94C102E4
:100A400069E272E080E00E9423031BB85C9A2FEFFA
:100A500081EE94E0215080409040E1F700C000001A
:100A60000FEF1FEF3AE0D32E4AE0E42EF12C1EC028
:100A7000BE016F5F7F4FCE0103960E9481030197F5
:100A8000B9F3A1CF8130910509F4B6C0A4F4009761
:100A9000C9F71C830B831A830983BE016F5F7F4FE5
:100AA000CE0103960E948103019789F0809168022C
:100AB00090916902E7CF8230910509F48CC08330B0
:100AC000910501F70E9469040E949604EFCFEB8123
:100AD000FC81EE0FFF1FEE0FFF1F89819A81E80F47
:100AE000F91FEE0FFF1FE050FF4F8081918184348A
:100AF0009105D1F48091660290916702B7010E943E
:100B00001506709367026093660280916A02909165
:100B10006B02019790936B0280936A0260E20E94DD
:100B200007030E947E044DC08332910509F582E0DF
:100B300090E090936902809368020E94A7048DE27E
:100B400092E00E94440384E1A82EB12C0E947E040E
:100B50000E948A042FEF80E792E02150804090406D
:100B6000E1F700C0000021E0A21AB10879F729C01E
:100B70004091660250916702D49E9001D59E300D3F
:100B80001124820F931F90936702809366020E9444
:100B90007E0480916A0290916B02892B19F481E0A6
:100BA0000E94C10263E372E080916A020E94230303
:100BB00080916A0290916B02019690936B028093F0
:100BC0006A02BE016F5F7F4FCE0103960E948103D0
:100BD0000197B9F36BCF5F9882E090E00E945D00CF
:100BE00010926B0210926A020E94AA01892B09F4EA
:100BF0005DCF0E94D6015ACF81E090E00E945D0057
:100C000055CFAA1BBB1B51E107C0AA1FBB1FA617CC
:100C1000B70710F0A61BB70B881F991F5A95A9F7A5
:100C200080959095BC01CD01089597FB072E16F491
:100C3000009407D077FD09D00E94010607FC05D07B
:100C40003EF4909581959F4F0895709561957F4FE3
:100C50000895FB01DC0101900D920020E1F7089559
:100C6000FB01DC014150504048F001900D92002002
:100C7000C9F701C01D9241505040E0F70895F89423
:020C8000FFCFA4
:100C82000100040007002A0002000500080000001D
:100C92000300060009002300410042004300440013
:100CA20042F401F401F4015E019600F4015E019642
:100CB200008A02F401F401F4015E019600F4015E7F
:100CC2000196008A02F4012C0196009001C800C826
:100CD200007D007D00FA00FA009001C800C8007D86
:100CE200007D00FA007D00F40177017D00F40177B8
:100CF200017D008A02F4012C0196009001C800C80F
:100D0200007D007D00FA00FA009001C800C8007D55
:100D1200007D00FA00FA00F40177017D00F401770A
:100D2200017D008A02B801B801B8015D010B02B869
:100D3200015D010B02B801930293029302BA020B06
:100D4200029F015D010B02B8017003B801B8017086
:100D5200033E031003E402BA02E402C7016E024B2F
:100D6200022A020B02D2010B025D019F015D01B852
:100D7200010B02B8010B0293027003B801B80170B3
:100D8200033E031003E402BA02E402C7016E024BFF
:100D9200022A020B02D2010B025D019F015D010BCF
:100DA20002B8015D010B02B8014E4F542041524D71
:100DB2004544002A00414C41524D212100494E54E4
:100DC200525544455200504D323031380061746FF3
:0C0DD2007470757465724E494341000056
:00000001FF
