:100000000C943E000C945B000C945B000C945B0021
:100010000C945B000C945B000C945B000C945B00F4
:100020000C945B000C945B000C945B000C945B00E4
:100030000C945B000C9464010C945B000C945B00CA
:100040000C9433010C945B000C945B000C945B00EB
:100050000C94D4080C945B000C945B000C945B0033
:100060000C945B000C945B000C945B000C945B00A4
:100070000C945B000C945B000C945B0011241FBE7D
:10008000CFEFD8E0DEBFCDBF14E0A0E0B1E0E0E408
:10009000F2E202C005900D92A633B107D9F725E030
:1000A000A6E3B4E001C01D92A339B207E1F70E94B4
:1000B000E3090C941E110C9400000F931F93CF932F
:1000C000DF9300D000D0CDB7DEB78C018FEF9FEF6C
:1000D0009C838B839A838983BE016F5F7F4FCE01A0
:1000E00003960E94A203019709F0B4C0EB81FC8142
:1000F000EE0FFF1FEE0FFF1F29813A81E20FF31F62
:10010000EE0FFF1FE050FF4F8081918184349105F5
:10011000D9F40E949F0480914004909141046AE0C8
:1001200070E00E94750B70934104609340048091CD
:100130004D0490914E04019790934E0480934D048A
:1001400060E20E9428037AC020914004309141046B
:100150008332910509F044C0809142049091430498
:1001600028173907C1F580914404909145040397FD
:1001700011F40E94DC0410924504109244045C9A2D
:100180005F9889E292E00E946503E6E4F4E087E08C
:10019000DF011D928A95E9F71F921F928DE793E088
:1001A0009F938F93FF93EF930E94460E86E494E013
:1001B0000E945F090E94AB04109243041092420413
:1001C00010924104109240040F900F900F900F90E6
:1001D0000F900F9033C010924104109240042EC033
:1001E0006AE0629FA001639F500D1124840F951F48
:1001F00090934104809340040E949F0480914D0499
:1002000090914E04892B19F481E00E94E20263E38D
:1002100072E080914D040E94440380914D049091BE
:100220004E04019690934E0480934D0407C0809134
:100230004404909145040817190751F4BE016F5FFB
:100240007F4FCE0103960E94A203019781F302C063
:10025000892BA1F30F900F900F900F90DF91CF910A
:100260001F910F9108951F920F920FB60F921124B4
:100270008F939F93F89480913C0490913D0481303A
:100280009105D1F44D9B0EC090933B0480933A04AA
:1002900080913E0490913F04019690933F04809397
:1002A0003E040AC080913A0490913B04019721F4E6
:1002B00010923D0410923C0478949F918F910F907E
:1002C0000FBE0F901F9018951F920F920FB60F92AE
:1002D00011242F933F934F935F936F937F938F934B
:1002E0009F93AF93BF93EF93FF93F894809144044F
:1002F000909145048130910541F5809138049091A9
:100300003904019690933904809338040E9475044F
:1003100080913804909139040F9759F50E94DC04BC
:100320008091440490914504019719F583E090E091
:100330009093450480934404109241041092400429
:1003400085E392E00E94650312C0039791F485E370
:1003500092E00E9465032FEF83EC99E021508040EA
:100360009040E1F700C0000081E00E94E2020E949C
:1003700075047894FF91EF91BF91AF919F918F9108
:100380007F916F915F914F913F912F910F900FBE91
:100390000F901F90189580913C0490913D04892BFB
:1003A000A1F410923F0410923E045B9A8AE68A956B
:1003B000F1F700C05B9810923B0410923A0481E080
:1003C00090E090933D0480933C0480913C04909194
:1003D0003D040197D1F381E090E020913E043091FB
:1003E0003F042F31310514F080E090E0089581E062
:1003F00090E090934504809344048DE392E00E9442
:1004000065035F980E94B70484E294EF0C94C304E0
:10041000DF92EF92FF920F931F93CF93DF9387B1F9
:10042000877887B988B1877888B9179A00C000C0E3
:1004300046B1D6B096B1392F307286B1179800C048
:1004400000C0179A00C000C096B1987006B116B1EE
:1004500056B1179800C000C027B1286727B9932B61
:1004600056FBEE24E0F8F12C9701292B90E1499FEF
:10047000A001112440785527242B352BD4FADD24F4
:10048000D0F8CD2D90E0D92F96E0CC0FDD1F9A95B6
:10049000E1F72C2B3D2B86FBEE27E0F9F0E044E062
:1004A000EE0FFF1F4A95E1F72E2B3F2B04FB66272B
:1004B00060F970E0660F771F660F771F622B732B52
:1004C00015FBAA27A0F9B0E0CD01880F991F862B54
:1004D000DF91CF911F910F91FF90EF90DF900895E2
:1004E0001598169A00C000C00C940802159A169A26
:1004F00000C000C00C9408020E947002881F882768
:10050000881F08950E947C028111FCCF08950F93EB
:100510001F93CF93DF93179A28B1C82F982F90720B
:100520002778292B982F991F9927991F990F990F91
:10053000990F922B86FB002700F910E024E0000FB2
:10054000111F2A95E1F7092BA82FA295A170B0E001
:1005500036E0AA0FBB1F3A95E1F7A02BA8B900C05F
:1005600000C0179800C000C0179A98B1282F2870B3
:100570009778922BE82FE170F0E046E0EE0FFF1F36
:100580004A95E1F7E92B82FB662760F970E054E0B9
:10059000660F771F5A95E1F76E2B4C2F46954170E9
:1005A00050E075E0440F551F7A95E1F7462B48B9A6
:1005B00000C000C0179800C000C0DF91CF911F910C
:1005C0000F910895CF93DF931F92CDB7DEB7898344
:1005D0000E9482021598169800C000C089810F9071
:1005E000DF91CF910C94870287B1886787B981B179
:1005F000806E81B91598169800C000C0179A88B10E
:100600008778806288B900C000C0179800C000C019
:1006100088E20E94E2028CE00E94E20286E00E94F0
:10062000E20281E00C94E202CF93DF931F92CDB7F8
:10063000DEB789830E948202159A169800C000C016
:1006400089810F90DF91CF910C9487020C94140351
:10065000CF93DF931F92CDB7DEB7805869830E9496
:10066000E2026981862F0F90DF91CF910C941403E1
:10067000CF93DF93EC018991882319F00E94140332
:10068000FACFDF91CF910895CF93DF93EB0180688C
:100690000E94E202CE01DF91CF910C9438030F93B8
:1006A0001F93CF93DF938C01EB0181E00E94E20264
:1006B000C8010E94380380EC0E94E202CE01DF9163
:1006C000CF911F910F910C9438030F931F93CF93E9
:1006D000DF93CDB7DEB7A0970FB6F894DEBF0FBE9D
:1006E000CDBF8C0181E00E94E202F8010190002060
:1006F000E9F73197E01BF10B7197B0F040E150E062
:10070000B801CE0141960E941D0EB801605F7F4F77
:10071000CE0101960E94080EBE016F5F7F4FCE0191
:1007200041960E944F0303C0C8010E943803A0965F
:100730000FB6F894DEBF0FBECDBFDF91CF911F91F2
:100740000F910895EF92FF920F931F93CF93DF9332
:1007500013B815B814B825B12F6025B920E030E0E2
:10076000C0E8D0E008E010E044B1407F44B9E4B113
:10077000F22EE32EAE01022E02C0559547950A9443
:10078000E2F74E2B44B940E050E0E3B1F0E0D8018D
:10079000042E02C0B595A7950A94E2F7EA23FB233D
:1007A000EF2B49F4FC0140835183FB01F082E1828D
:1007B00081E090E00CC04F5F5F4F4430510529F756
:1007C0002F5F3F4F2430310579F680E090E0DF91D4
:1007D000CF911F910F91FF90EF900895549A089533
:1007E00084B5836C84BD80EC87BD85B5816085BD93
:1007F0000895CF93DF93E1E8F0E08081816080830A
:10080000A0E8B0E08C91806C8C93C6E8D0E08FEFCC
:100810009FEF998388838C9183628C9380818C6114
:1008200080838881998196958795969587959093F1
:100830008900809388008881998196958795909307
:100840008B0080938A00DF91CF910895E0EBF0E078
:100850008081836C8083E1EBF0E080818160808324
:10086000089580914F0490915004499790935004BB
:1008700080934F044997C4F5E0915104F0915204DC
:10088000EE0FFF1FEB55FE4F6081718189E09DE304
:100890000E94610B709389006093880080918800AA
:1008A000909189009695879590938B0080938A000C
:1008B000109285001092840080915104909152040E
:1008C000FC01EE0FFF1FEF5DFE4F20813181309361
:1008D000500420934F04019660E470E00E94750B71
:1008E000909352048093510408955C982FEF81EE09
:1008F00094E0215080409040E1F700C000005C9AF5
:100900002FEF81EE94E0215080409040E1F700C04D
:10091000000008955C982FEF83EC99E0215080400F
:100920009040E1F700C000005C9A2FEF83EC99E063
:10093000215080409040E1F700C0000008955F9A88
:100940002FEF81EE94E0215080409040E1F700C00D
:1009500000005F980895129A2FEF81EE94E02150E5
:1009600080409040E1F700C0000012980895119A6D
:100970002FEF81EE94E0215080409040E1F700C0DD
:10098000000011980895909389008093880008953D
:10099000EFE6F0E0808182608083E1E8F0E0808132
:1009A0008860808380818460808389E09DE3909368
:1009B0008900809388000895EFE6F0E080818D7FC4
:1009C0008083E1E8F0E08081877F808380818B7F76
:1009D000808308952F923F924F925F926F927F9201
:1009E0008F929F92AF92BF92CF92DF92EF92FF923F
:1009F0000F931F93CF93DF93CDB7DEB72C970FB62E
:100A0000F894DEBF0FBECDBF8C018DB79EB79E831D
:100A10008D83F80101900020E9F731971F01201A1A
:100A2000310A3324910121503109EDB7FEB7E219A3
:100A3000F3090FB6F894FEBF0FBEEDBF8DB79EB79A
:100A400001969A838983412C512C32010196988713
:100A50008F83E981FA81E20FF31FFA87E98780919A
:100A60008A0590918B05A0918C05B0918D05805FD2
:100A7000984DAF4FBF4F481659066A067B0650F097
:100A800010928A0510928B0510928C0510928D059C
:100A900082E064C080919205843011F41092920536
:100AA000EAEEF4E001900020E9F73197CF018A5E89
:100AB00094406C01E12CF12CC114D104E104F10447
:100AC00009F474C08FE99FE00197F1F700C00000BE
:100AD0009FEF491A590A690A790AEAEEF4E001908F
:100AE0000020E9F73197CF018A5E9440A0E0B0E0A2
:100AF000C816D906EA06FB0609F058C0EAEEF4E08B
:100B0000FC83EB83812C912C5401A9016F817885A2
:100B100089819A812B873C870E94EF0DEB81FC81B4
:100B20008191FC83EB83E985FA858083A101B8017B
:100B300089819A810E940F0EFFEF8F1A9F0AAF0AD8
:100B4000BF0A2B853C85892B59F510928A05109296
:100B50008B0510928C0510928D0581E08093920593
:100B6000ED81FE810FB6F894FEBF0FBEEDBF2C964F
:100B70000FB6F894DEBF0FBECDBFDF91CF911F91AE
:100B80000F91FF90EF90DF90CF90BF90AF909F902C
:100B90008F907F906F905F904F903F902F9008952F
:100BA0008C149D04AE04BF0408F4AFCF8FE99FE01E
:100BB0000197F1F700C000009FEF491A590A690A2E
:100BC000790A4DCF80EAEAEEF4E0DF011D928A95C2
:100BD000E9F7109291051092900510928F051092EE
:100BE0008E050895CF93DF93EC0184E08093920506
:100BF000CE010E94EA04909192059923C9F3DF91F6
:100C0000CF910895CF92DF92EF92FF920F931F93AF
:100C1000CF93DF9300D000D01F92CDB7DEB78C0109
:100C2000BC01645F7F4FFB016F01C01AD10A819143
:100C30008D30D1F7A6014C505109CE0101960E948A
:100C40001D0EF80101900020E9F73197E01BF10B30
:100C5000B6016E5F7F4F7F01E61AF70A600F711FC2
:100C6000A701C8010E94E60D86E0E81AF1080E0D02
:100C70001F1D46E050E06BE572E0C8010E940F0EB8
:100C8000892B41F4A601485F5F4F60E070E0C80126
:100C90000E94010E0F900F900F900F900F90DF9118
:100CA000CF911F910F91FF90EF90DF90CF9008951B
:100CB0000E94F20581E090919205923009F480E063
:100CC00008950F931F93CF93DF9300D0CDB7DEB776
:100CD0008B0189839A830E94E20589819A810E940F
:100CE000D70983EC92E00E94D709C8010F900F90BA
:100CF000DF91CF911F910F910C9458060F931F9382
:100D0000CF93DF93CDB7DEB764970FB6F894DEBF0D
:100D10000FBECDBF8E010F5F1F4F94E1F8011192FE
:100D20009A95E9F71F928F9382E692E09F938F93B3
:100D30001F930F930E94460E1C8A6BE572E0C80158
:100D40000E9461060F900F900F900F900F900F90E0
:100D500064960FB6F894DEBF0FBECDBFDF91CF9182
:100D60001F910F9108950F931F93CF93DF93CDB7EA
:100D7000DEB764970FB6F894DEBF0FBECDBF8E010D
:100D80000F5F1F4F94E1F80111929A95E9F71F92B6
:100D90008F9380E792E09F938F931F930F930E940E
:100DA000460E1C8A6BE572E0C8010E9461060F9036
:100DB0000F900F900F900F900F9064960FB6F894CD
:100DC000DEBF0FBECDBFDF91CF911F910F91089570
:100DD000CF93C5E06BE572E08DE792E00E9461067B
:100DE00081110BC06BE572E082E892E00E9461061F
:100DF000811103C0C15071F701C081E0CF91089506
:100E00006BE572E085E892E00C9461060F931F9306
:100E1000CF93DF93CDB7DEB764970FB6F894DEBFFC
:100E20000FBECDBF8E010F5F1F4F94E1F8011192ED
:100E30009A95E9F71F928F9383E992E09F938F939E
:100E40001F930F930E94460E1C8A6BE572E0C80147
:100E50000E9461060F900F900F900F900F900F90CF
:100E600064960FB6F894DEBF0FBECDBFDF91CF9171
:100E70001F910F9108950F931F93CF93DF93CDB7D9
:100E8000DEB7EC970FB6F894DEBF0FBECDBF8E0174
:100E90000F5F1F4F2CE3F80111922A95E9F77F931A
:100EA0006F939F938F9380EA92E09F938F931F930A
:100EB0000F930E94460E1CAE63EB72E0C8010E94C5
:100EC00061060FB6F894DEBF0FBECDBF811122C000
:100ED00066EC72E08AEE94E00E942C0E892BE1F41D
:100EE0006FEC72E08AEE94E00E942C0E892BB1F434
:100EF00068ED72E08AEE94E00E942C0E892B81F45A
:100F000061EE72E08AEE94E00E942C0E892B51F47F
:100F100085E009C080E007C081E005C082E003C031
:100F200083E001C084E0EC960FB6F894DEBF0FBEFC
:100F3000CDBFDF91CF911F910F9108956BE572E0C6
:100F40008AEE92E00E94610667EF72E08AEE94E01A
:100F50000E942C0E892BD1F460E073E08AEE94E0BD
:100F60000E942C0E892BA1F469E073E08AEE94E0D4
:100F70000E942C0E892B71F462E173E08AEE94E0FA
:100F80000E942C0E892B41F484E0089580E008959E
:100F900081E0089582E0089583E00895DF92EF9262
:100FA000FF920F931F93CF93DF93CDB7DEB7EE97EA
:100FB0000FB6F894DEBF0FBECDBFD82EF62EE72EAB
:100FC0008E010F5F1F4F8CE3F80111928A95E9F7AC
:100FD0006BE173E084E293E04DAF5EAF0E94610687
:100FE0004DAD5EAD882369F05F934F93EF92FF9212
:100FF0008FE293E09F938F931F930F930E94460E6F
:101000000EC05F934F93EF92FF921F92DF9289E49D
:1010100093E09F938F931F930F930E94460E0FB6FA
:10102000F894DEBF0FBECDBF68E673E0C8010E9432
:101030006106811106C080919205823021F085E021
:1010400003C081E001C082E0EE960FB6F894DEBFE7
:101050000FBECDBFDF91CF911F910F91FF90EF9009
:10106000DF900895EF92FF920F931F93CF93DF933A
:10107000CDB7DEB764970FB6F894DEBF0FBECDBF15
:101080008C01CE0101967C0184E1F70111928A95D1
:10109000E9F7F80101900020E9F79F01201B310BCF
:1010A0002F5F3F4F3F932F9382E793E09F938F9360
:1010B000FF92EF920E94460E1C8A60E873E0C7011F
:1010C0000E94610668E873E0C8010E9461060F9003
:1010D0000F900F900F900F900F90811106C080918C
:1010E0009205823021F085E003C081E001C082E0FA
:1010F00064960FB6F894DEBF0FBECDBFDF91CF91DF
:101100001F910F91FF90EF9008958091900590911D
:10111000910520918E0530918F05821B930B0895C8
:1011200020918E0530918F058091900590919105C9
:101130002817390784F480918E0590918F059C01C2
:101140002F5F3F4F30938F0520938E05FC01E651B2
:10115000FB4F808108950E94E20580E00895EF92A0
:10116000FF920F931F93CF93DF938C012FEF81EEAC
:1011700094E0215080409040E1F700C00000E80179
:101180007E01E01AF10A0E9485081816190624F457
:101190000E9490088993F4CFC701DF91CF911F91EE
:1011A0000F91FF90EF9008951F920F920FB60F923C
:1011B00011242F938F939F93EF93FF932FB7F8945E
:1011C000E0919005F09191058091C600E651FB4FAA
:1011D000808380919005909191050196909391055F
:1011E000809390058091900590919105803A9105AA
:1011F00041F4109291051092900510928F05109273
:101200008E052FBFFF91EF919F918F912F910F909E
:101210000FBE0F901F90189560E072EC81E090E097
:101220000E949B0964E973E080E00E9444030E94ED
:10123000E8068823E1F36FE973E080E00E9444034D
:1012400083E00E9406076BEA73E080E00E9444039B
:1012500080E00E94B30668EB73E080E00E944403E4
:1012600080E00E947E0665EC73E080E00E9444030B
:101270000E949E07833029F46DE472E0CB010E9446
:101280003B0761ED73E080E00E9444038FE39CE93B
:101290000197F1F700C0000040EE53E063EE73E009
:1012A00080E00E94CE0766EF73E080E00E94440376
:1012B0008FE39CE90197F1F700C000000895CF93F8
:1012C000DF93EC010E949E0780935304833029F43E
:1012D0006DE472E0CB010E943B07809153048230A1
:1012E00039F440EE53E063EE73E080E00E94CE07F5
:1012F000E4E5F4E086E9DF011D928A95E9F7DF93E2
:10130000CF9383E094E09F938F9384E194E09F9345
:101310008F93FF93EF930E94460E8DB79EB708966A
:101320000FB6F8949EBF0FBE8DBF84E594E0DF91A9
:10133000CF910C943208E0ECF0E020812260208311
:10134000E1ECF0E0208128692083E2ECF0E02081EC
:10135000266020830E949E0C20E030E040E051E4B3
:101360000E942C0D9B01AC0160E074E284E79BE4D9
:101370000E94F60B20E030E040E85FE30E94890B1A
:101380000E94990D0E94680C6093C4007093C50080
:1013900008958091C00087FFFCCF8091C60008951A
:1013A0008093C6008091C00085FFFCCF0895CF9345
:1013B000DF93EC018991882319F00E94D009FACFBC
:1013C000DF91CF910895CF93DF9300D000D0CDB7B8
:1013D000DEB780E98AB981B1866081B93A9A429ACA
:1013E0005C9A0E94F40266E472E080E00E9444038A
:1013F00081E00E94E20278940E940C092FEF80E7BE
:1014000092E0215080409040E1F700C000000E942F
:10141000F40281E00E94E2020FEF1FEF6DE472E040
:1014200080E00E9444031C830B831A830983BE015E
:101430006F5F7F4FCE0103960E94A203019771F761
:10144000EB81FC81EE0FFF1FEE0FFF1F89819A8158
:10145000E80FF91FEE0FFF1FE050FF4F80819181D1
:1014600081349105E9F50E949F0481E00E94E20227
:101470000E94F40280916E00826080936E0085B5B8
:10148000826085BD85B5826085BD80EA87BD81E0CB
:101490000E94E20269E272E080E00E9444031BB80D
:1014A0005C9AEFEFF1EE24E0E150F0402040E1F7EC
:1014B00000C00000AA24A394B12C06E414E047E085
:1014C000542E53E0752E6DE7E62E63E0F62ECC2405
:1014D000CA94DC2CEAE06E2EFAE08F2E912C2AC002
:1014E000BE016F5F7F4FCE0103960E94A20301975A
:1014F000B9F394CF8230910509F4A5C083309105EA
:1015000009F4B5C08130910509F4AEC09CF700978D
:10151000C9F71092370410923604DC82CB82DA824B
:10152000C982BE016F5F7F4FCE0103960E94A20366
:10153000019729F08091440490914504E3CFEB8119
:10154000FC81EE0FFF1FEE0FFF1F89819A81E80FCC
:10155000F91FEE0FFF1FE050FF4F8081918184340F
:101560009105D1F48091420490914304B4010E940A
:10157000750B709343046093420480914D049091E5
:101580004E04019790934E0480934D0460E20E94B4
:1015900028030E949F044DC08332910509F582E023
:1015A00090E090934504809344040E94C8048DE227
:1015B00092E00E94650384E1282E312C0E949F0452
:1015C0000E94AB048FEF90E7E2E081509040E04052
:1015D000E1F700C00000F1E02F1A310879F729C0C7
:1015E0004091420450914304649E9001659E300DE9
:1015F0001124820F931F90934304809342040E940E
:101600009F0480914D0490914E04892B19F481E040
:101610000E94E20263E372E080914D040E94440361
:1016200080914D0490914E04019690934E048093C6
:101630004D04BE016F5F7F4FCE0103960E94A2034F
:101640000197B9F377CF5F9882E090E00E945D0048
:1016500010924E0410924D040E94CB01892B09F484
:1016600069CF0E94F70166CF81E090E027C08091AA
:10167000360490913704892BD9F4B0923704A092A4
:101680003604F801252D11922A95E9F71F927F92D1
:10169000FF92EF921F930F930E94460E86E494E010
:1016A0000E945F090F900F900F900F900F900F9076
:1016B0000E948A040E94B70483E090E00E945D00CB
:1016C00039CFAA1BBB1B51E107C0AA1FBB1FA6171E
:1016D000B70710F0A61BB70B881F991F5A95A9F7DB
:1016E00080959095BC01CD01089597FB072E16F4C7
:1016F000009407D077FD09D00E94610B07FC05D04C
:101700003EF4909581959F4F0895709561957F4F18
:1017100008955058BB27AA270E94A10B0C94F20CE5
:101720000E94E40C38F00E94EB0C20F039F49F3F4B
:1017300019F426F40C94E10C0EF4E095E7FB0C94FC
:10174000DB0CE92F0E94030D58F3BA1762077307E9
:101750008407950720F079F4A6F50C94250D0EF476
:10176000E0950B2EBA2FA02D0B01B90190010C01B1
:10177000CA01A0011124FF27591B99F0593F50F4C9
:10178000503E68F11A16F040A22F232F342F442721
:10179000585FF3CF469537952795A795F040539519
:1017A000C9F77EF41F16BA0B620B730B840BBAF0E9
:1017B0009150A1F0FF0FBB1F661F771F881FC2F754
:1017C0000EC0BA0F621F731F841F48F48795779568
:1017D0006795B795F7959E3F08F0B0CF9395880F22
:1017E00008F09927EE0F9795879508950E940A0CA7
:1017F0000C94F20C0E94EB0C58F00E94E40C40F0A8
:1018000029F45F3F29F00C94DB0C51110C94260D48
:101810000C94E10C0E94030D68F39923B1F3552356
:1018200091F3951B550BBB27AA27621773078407F3
:1018300038F09F5F5F4F220F331F441FAA1FA9F389
:1018400035D00E2E3AF0E0E832D091505040E69577
:10185000001CCAF72BD0FE2F29D0660F771F881FD8
:10186000BB1F261737074807AB07B0E809F0BB0BCB
:10187000802DBF01FF2793585F4F3AF09E3F5105DF
:1018800078F00C94DB0C0C94260D5F3FE4F3983E4B
:10189000D4F3869577956795B795F7959F5FC9F7C8
:1018A000880F911D9695879597F90895E1E0660F49
:1018B000771F881FBB1F621773078407BA0720F0C2
:1018C000621B730B840BBA0BEE1F88F7E09508952B
:1018D0000E946F0C6894B1110C94260D08950E941B
:1018E0000B0D88F09F5798F0B92F9927B751B0F09A
:1018F000E1F0660F771F881F991F1AF0BA95C9F794
:1019000014C0B13091F00E94250DB1E008950C94FF
:10191000250D672F782F8827B85F39F0B93FCCF3B2
:10192000869577956795B395D9F73EF49095809510
:10193000709561957F4F8F4F9F4F0895E89409C030
:1019400097FB3EF490958095709561957F4F8F4FF2
:101950009F4F9923A9F0F92F96E9BB279395F69508
:10196000879577956795B795F111F8CFFAF4BB0F86
:1019700011F460FF1BC06F5F7F4F8F4F9F4F16C0EA
:10198000882311F096E911C0772321F09EE8872F74
:10199000762F05C0662371F096E8862F70E060E030
:1019A0002AF09A95660F771F881FDAF7880F9695A9
:1019B000879597F9089597F99F6780E870E060E050
:1019C00008959FEF80EC089500240A9416161706D8
:1019D00018060906089500240A9412161306140620
:1019E00005060895092E0394000C11F4882352F083
:1019F000BB0F40F4BF2B11F460FF04C06F5F7F4F3B
:101A00008F4F9F4F089557FD9058440F551F59F021
:101A10005F3F71F04795880F97FB991F61F09F3FDB
:101A200079F087950895121613061406551FF2CF04
:101A30004695F1DF08C0161617061806991FF1CF54
:101A400086957105610508940895E894BB2766277B
:101A50007727CB0197F908950E943F0D0C94F20C63
:101A60000E94E40C38F00E94EB0C20F0952311F05A
:101A70000C94DB0C0C94E10C11240C94260D0E94A8
:101A8000030D70F3959FC1F3950F50E0551F629FB2
:101A9000F001729FBB27F00DB11D639FAA27F00DC7
:101AA000B11DAA1F649F6627B00DA11D661F829FEE
:101AB0002227B00DA11D621F739FB00DA11D621FD3
:101AC000839FA00D611D221F749F3327A00D611DF0
:101AD000231F849F600D211D822F762F6A2F1124D2
:101AE0009F5750409AF0F1F088234AF0EE0FFF1F05
:101AF000BB1F661F771F881F91505040A9F79E3F5C
:101B0000510580F00C94DB0C0C94260D5F3FE4F340
:101B1000983ED4F3869577956795B795F795E795B1
:101B20009F5FC1F7FE2B880F911D9695879597F9BA
:101B300008950E940B0DE8F09E37E8F09639B8F44E
:101B40009E3848F4672F782F8827985FF9CF8695BD
:101B50007795679593959539D0F3B62FB1706B0F44
:101B6000711D811D20F487957795679593950C9449
:101B7000BD0D0C94D80D0C94260D882371F4772399
:101B800021F09850872B762F07C0662311F49927F0
:101B90000DC09051862B70E060E02AF09A95660F98
:101BA000771F881FDAF7880F9695879597F908951C
:101BB0009F3F31F0915020F4879577956795B795C1
:101BC000880F911D9695879597F90895FB01DC0183
:101BD00002C001900D9241505040D8F70895681707
:101BE000790768F4FB01DC01E40FF51FA40FB51FB2
:101BF00002C002900E9241505040D8F708950C94C4
:101C0000E60DDC0101C06D9341505040E0F70895AE
:101C1000FB01DC0101900D920020E1F70895FB012A
:101C2000DC014150504030F08D910190801919F441
:101C30000020B9F7881B990B0895FB01DC01415086
:101C4000504048F001900D920020C9F701C01D924C
:101C500041505040E0F70895FB0151915523A9F000
:101C6000BF01DC014D9145174111E1F759F4CD0158
:101C70000190002049F04D9140154111C9F3FB013D
:101C80004111EFCF81E090E001970895AEE0B0E020
:101C9000ECE4FEE00C94F5100D891E8986E08C833F
:101CA0001A8309838FEF9FE79E838D83AE01475E82
:101CB0005F4F6F89788DCE0101960E94690E2F814A
:101CC0003885F801E20FF31F10822E96E4E00C94A1
:101CD0001111ACE0B0E0EFE6FEE00C94E7107C01FF
:101CE0006B018A01FC0117821682838181FFBDC1CD
:101CF000CE0101964C01F7019381F60193FD859188
:101D000093FF81916F01882309F4ABC1853239F4C7
:101D100093FD859193FF81916F01853229F4B7017D
:101D200090E00E945110E7CF512C312C20E020325E
:101D3000A0F48B3269F030F4803259F0833269F4C8
:101D400020612CC08D3239F0803339F4216026C0F7
:101D50002260246023C0286021C027FD27C030ED09
:101D6000380F3A3078F426FF06C0FAE05F9E300D57
:101D70001124532E13C08AE0389E300D1124332EC7
:101D800020620CC08E3221F426FD6BC1206406C097
:101D90008C3611F4206802C0883641F4F60193FDB8
:101DA000859193FF81916F018111C1CF982F9F7D04
:101DB0009554933028F40C5F1F4FFFE3F9830DC057
:101DC000833631F0833771F0833509F05BC022C070
:101DD000F801808189830E5F1F4F44244394512C66
:101DE000540115C03801F2E06F0E711CF801A0809B
:101DF000B18026FF03C0652D70E002C06FEF7FEF5A
:101E0000C5012C870E9446102C0183012C852F7759
:101E1000222E17C03801F2E06F0E711CF801A0806D
:101E2000B18026FF03C0652D70E002C06FEF7FEF29
:101E3000C5012C870E943B102C012C852068222E86
:101E4000830123FC1BC0832D90E048165906B0F493
:101E5000B70180E290E00E9451103A94F4CFF5016E
:101E600027FC859127FE81915F01B70190E00E94D8
:101E7000511031103A94F1E04F1A510841145104B5
:101E800071F7E5C0843611F0893639F5F80127FF7E
:101E900007C060817181828193810C5F1F4F08C0F0
:101EA00060817181072E000C880B990B0E5F1F4F0C
:101EB0002F76722E97FF09C0909580957095619549
:101EC0007F4F8F4F9F4F2068722E2AE030E0A40191
:101ED0000E948910A82EA81844C0853729F42F7EA7
:101EE000B22E2AE030E025C0F22FF97FBF2E8F36C8
:101EF000C1F018F4883579F0B4C0803719F088370C
:101F000021F0AFC02F2F2061B22EB4FE0DC08B2D5B
:101F10008460B82E09C024FF0AC09F2F9660B92E96
:101F200006C028E030E005C020E130E002C020E13A
:101F300032E0F801B7FE07C0608171818281938130
:101F40000C5F1F4F06C06081718180E090E00E5FE2
:101F50001F4FA4010E948910A82EA818FB2DFF77FF
:101F60007F2E76FE0BC0372D3E7FA51450F474FEF5
:101F70000AC072FC08C0372D3E7E05C0BA2C372D32
:101F800003C0BA2C01C0B52C34FF0DC0FE01EA0D10
:101F9000F11D8081803311F4397E09C032FF06C003
:101FA000B394B39404C0832F867809F0B39433FDBF
:101FB00013C030FF06C05A2CB31418F4530C5B182E
:101FC000B32CB31468F4B70180E290E03C870E9420
:101FD0005110B3943C85F5CFB31410F43B1801C0F5
:101FE000312C34FF12C0B70180E390E03C870E949F
:101FF00051103C8532FF17C031FD03C088E790E0E7
:1020000002C088E590E0B7010CC0832F867859F0B4
:1020100031FF02C08BE201C080E237FD8DE2B701E3
:1020200090E00E945110A51438F4B70180E390E0CD
:102030000E9451105A94F7CFAA94F401EA0DF11DB1
:102040008081B70190E00E945110A110F5CF33209C
:1020500009F451CEB70180E290E00E9451103A9409
:10206000F6CFF7018681978102C08FEF9FEF2C9604
:10207000E2E10C940311FC010590615070400110E5
:10208000D8F7809590958E0F9F1F0895FC016150A1
:10209000704001900110D8F7809590958E0F9F1F8A
:1020A00008950F931F93CF93DF93FB01238121FDAD
:1020B00003C08FEF9FEF28C022FF16C046815781D3
:1020C000248135814217530744F4A081B1819D01D9
:1020D0002F5F3F4F318320838C93268137812F5F81
:1020E0003F4F3783268310C0EB01092F182F008440
:1020F000F185E02D0995892BE1F68E819F8101966E
:102100009F838E83812F902FDF91CF911F910F910D
:102110000895FA01AA27283051F1203181F1E8947D
:102120006F936E7F6E5F7F4F8F4F9F4FAF4FB1E0CA
:102130003ED0B4E03CD0670F781F891F9A1FA11DC5
:10214000680F791F8A1F911DA11D6A0F711D811DC6
:10215000911DA11D20D009F468943F912AE0269F8B
:1021600011243019305D3193DEF6CF010895462FEA
:102170004770405D4193B3E00FD0C9F7F6CF462FCB
:102180004F70405D4A3318F0495D31FD4052419334
:1021900002D0A9F7EACFB4E0A695979587957795F1
:1021A0006795BA95C9F700976105710508959B0178
:1021B000AC010A2E06945795479537952795BA9501
:1021C000C9F7620F731F841F951FA01D08952F92DA
:1021D0003F924F925F926F927F928F929F92AF92B7
:1021E000BF92CF92DF92EF92FF920F931F93CF9304
:1021F000DF93CDB7DEB7CA1BDB0B0FB6F894DEBF9B
:102200000FBECDBF09942A88398848885F846E84C0
:102210007D848C849B84AA84B984C884DF80EE800A
:10222000FD800C811B81AA81B981CE0FD11D0FB613
:10223000F894DEBF0FBECDBFED010895F894FFCF37
:102240000100040007002A00020005000800000049
:10225000030006000900230041004200430044003F
:1022600042F401F401F4015E019600F4015E01966E
:10227000008A02F401F401F4015E019600F4015EAB
:102280000196008A02F4012C0196009001C800C852
:10229000007D007D00FA00FA009001C800C8007DB2
:1022A000007D00FA007D00F40177017D00F40177E4
:1022B000017D008A02F4012C0196009001C800C83B
:1022C000007D007D00FA00FA009001C800C8007D82
:1022D000007D00FA00FA00F40177017D00F4017737
:1022E000017D008A02B801B801B8015D010B02B896
:1022F000015D010B02B801930293029302BA020B33
:10230000029F015D010B02B8017003B801B80170B2
:10231000033E031003E402BA02E402C7016E024B5B
:10232000022A020B02D2010B025D019F015D01B87E
:10233000010B02B8010B0293027003B801B80170DF
:10234000033E031003E402BA02E402C7016E024B2B
:10235000022A020B02D2010B025D019F015D010BFB
:1023600002B8015D010B02B8014E4F542041524D9D
:102370004544002A00414C41524D212100494E5410
:10238000525544455200504D323031380061746F1F
:102390007470757465724E494341000D0A4F4B0DC0
:1023A0000A0041542B4349504D4F44453D2564009C
:1023B00041542B4349504D55583D256400415445E7
:1023C000300041540041542B434950434C4F534536
:1023D0003D310041542B43574D4F44453D2564004A
:1023E00041542B43574A41503D222573222C22252C
:1023F0007322000D0A5749464920434F4E4E45432C
:102400005445440D0A002B43574A41503A31002BA2
:1024100043574A41503A32002B43574A41503A33CE
:10242000002B43574A41503A340041542B43495002
:10243000535441545553005354415455533A320068
:102440005354415455533A33005354415455533A1D
:1024500034005354415455533A35004349504D5577
:10246000583A300041542B4349504D55583F004194
:10247000542B43495053544152543D22544350220B
:102480002C222573222C25730041542B4349505391
:10249000544152543D222564222C22544350222C74
:1024A000222573222C257300434F4E4E4543540D75
:1024B0000A0041542B43495053454E443D25640086
:1024C0000D0A4F4B0D0A3E000D0A53454E44204F56
:1024D0004B0D0A0055534152545F444F4E4500572F
:1024E000696669206973206F6B21005769666920EE
:1024F0004D6F6465204F4B005769666920434F4E0E
:102500004E204F4B005769666920415050204F4B79
:10251000005769666920436F6E6E65637465640079
:102520003830006170692E7468696E677370656118
:102530006B2E636F6D005769666920496E69742060
:102540004F4B005334554C3255423632385657456E
:102550004B4A5300474554202F7570646174653FA2
:102560006170695F6B65793D2573266669656C648A
:06257000333D257300005D
:00000001FF
